:100000000C943E000C945B000C945B000C945B0021
:100010000C945B000C945B000C945B000C945B00F4
:100020000C9416030C94A9010C945B000C945B00D7
:100030000C945B000C9474010C945B000C945B00BA
:100040000C943F010C945B000C945B000C945B00DF
:100050000C949D020C945B000C945B000C945B0070
:100060000C945B000C945B000C945B000C945B00A4
:100070000C945B000C945B000C945B0011241FBE7D
:10008000CFEFD8E0DEBFCDBF13E0A0E0B1E0E4E207
:10009000FCE002C005900D92A43FB107D9F725E01E
:1000A000A4EFB3E001C01D92A433B207E1F70E94B0
:1000B00084050C9410060C94000092E094BD81E03D
:1000C00085BD1092800029E0209381009093B000BC
:1000D0008093B100109285001092840016BC10929B
:1000E000B200089583E38093C4001092C50088E9AC
:1000F0008093C100089586E880937A0084E280931B
:100100007C000895A895E0E6F0E088E1808381E432
:10011000808308950E945D000E947B000E9472000F
:100120000E94C8050E948200089584E087B98FEF7D
:1001300084B911B88AB90895CF93DF93ACECB1E0DC
:10014000E4E3F4E0C4E2D1E024E732E08C911296DB
:10015000808389919991928381833396A217B30703
:10016000A9F7A4E1B1E0EAE1F4E0C4E0D1E024E2DF
:1001700031E08C9112968083899199919283818349
:100180003396A217B307A9F788E090E0909307048D
:1001900080930604DF91CF910895845591092091B1
:1001A0000C0430910D0428173907C1F510926E0028
:1001B0002FEF3FEF30930D0420930C042FC01092CB
:1001C0006F002FEF3FEF30930F0420930E04209128
:1001D0001004309111042817390781F407C02091C9
:1001E0001004309111042817390741F4109270005F
:1001F0008FEF9FEF909311048093100480916E0015
:10020000811114C080916F00811110C08091700025
:1002100081110CC08BB18F798BB9089520910E0498
:1002200030910F0482179307D1F6C9CF08955E9AD3
:10023000FB01EE0FFF1F6E0F7F1FFB01E65EFB4F02
:10024000885A9109DC01AA0FBB1F8A0F9B1FDC0192
:10025000AC5CBB4F8D919D91AC9180839183A283C7
:10026000089584E280937C00EAE7F0E08081806476
:100270008083808186FDFDCF8091790008951F9253
:100280000F920FB60F9211248F939F93EF93FF93CA
:100290005B988091F6039091F703C09721F4109238
:1002A000F7031092F603E091F603F091F703EE0FD7
:1002B000FF1F8091300590913105E80FF91F808173
:1002C00085B98091F6039091F70301969093F70317
:1002D0008093F6035B9AFF91EF919F918F910F901E
:1002E0000FBE0F901F9018951F920F920FB60F928E
:1002F00011248F939F93EF93FF935F988091F8035E
:100300009091F903C09721F41092F9031092F80329
:10031000E091F803F091F903EE0FFF1F8091300593
:1003200090913105E80FF91F808185B98091F8031C
:100330009091F90301969093F9038093F8035F9AE3
:10034000FF91EF919F918F910F900FBE0F901F9093
:1003500018951F920F920FB60F9211248F939F93AF
:10036000EF93FF9342988091F4039091F503C09727
:1003700021F41092F5031092F403E091F403F0914C
:10038000F503EE0FFF1F8091300590913105E80FC6
:10039000F91F808185B98091F4039091F50301964E
:1003A0009093F5038093F403429AFF91EF919F910C
:1003B0008F910F900FBE0F901F901895813091056F
:1003C00019F481E085BD08958830910519F482E023
:1003D00085BD08958034910511F483E085BD0895AD
:1003E0008130910521F489E080938100089588305F
:1003F000910521F48AE0809381000895803491056D
:1004000019F48BE08093810008958130910521F4E7
:1004100081E08093B10008958830910521F482E055
:100420008093B10008958034910519F483E080939E
:10043000B1000895CF93DF932BB120662BB92091A3
:100440000C0430910D042F3F3F4FC1F490930D04E5
:1004500080930C04FC01EE0FFF1F8E0F9F1FFC0109
:10046000EC5CFB4F808187BD818192810E94DE011F
:10047000EEE6F0E08081826080835CC020910E0413
:1004800030910F042F3F3F4FE1F490930F0480937E
:100490000E04FC01EE0FFF1F8E0F9F1FFC01EC5C92
:1004A000FB4F808190E09093890080938800818148
:1004B00092810E94F001EFE6F0E08081826080830B
:1004C00039C020911004309111042F3F3F4FC9F4DF
:1004D0009093110480931004FC01EE0FFF1F8E0F08
:1004E0009F1FFC01EC5CFB4F80818093B3008181F6
:1004F00092810E940502E0E7F0E0808182608083C3
:1005000019C0EC01CC0FDD1F8C0F9D1FEC01CC5CE2
:10051000DB4F888187BD89819A810E94DE01EEE6EA
:10052000F0E0808182608083888190E09093130462
:1005300080931204DF91CF9108951F920F920FB60E
:100540000F9211242F933F934F935F936F937F9359
:100550008F939F93AF93BF93EF93FF938091C600C8
:1005600090E090933305809332058091320590910D
:10057000330590930301809302018091320590919D
:100580003305883A9105A0F08091320590913305AA
:1005900060910404709105040E9417018091040485
:1005A000909105040196909305048093040422C061
:1005B00080913205909133058435910570F08091DA
:1005C000320590913305883A910538F480913205CF
:1005D000909133050E94CD000DC08091320590911D
:1005E00033058435910530F48091320590913305BF
:1005F0000E941A028091040490910504089729F43E
:1006000010920504109204045E98FF91EF91BF913F
:10061000AF919F918F917F916F915F914F913F919A
:100620002F910F900FBE0F901F9018951F920F9251
:100630000FB60F9211248F939F9380910001909198
:100640000101009751F01092FB031092FA030197F9
:1006500090930101809300012EC08091FA03909144
:10066000FB03892B39F48CE990E090930904809383
:1006700008045C9881E090E09093FB038093FA0378
:100680008091080490910904009731F001979093AC
:1006900009048093080407C08CE990E09093090452
:1006A000809308045C988091080490910904029753
:1006B00014F480E18BB99F918F910F900FBE0F9032
:1006C0001F90189583B7817F83BFF89483B78160AB
:1006D00083BF7894889583B78E7F83BF789408957D
:1006E00089E391E090930101809300012091180427
:1006F0003091190420FD06C084ED92E090933105FD
:100700008093300521FD06C084E393E0909331058A
:100710008093300522FD06C084E792E09093310576
:100720008093300523FD06C084E993E09093310562
:100730008093300520933204309333040895CF938F
:10074000C82F88E50E94CE05882319F00E94F50580
:1007500008C080E00E94FE058C2F0E94FE050E94CA
:10076000F505CF910895CF93DF93EC0180911204AA
:10077000909113040196B9F4D0931304C09312041A
:10078000CE01880F991FC80FD91FC65EDB4F888125
:1007900087BD89819A810E94DE01EEE6F0E08081CA
:1007A0008260808355C08091140490911504019655
:1007B000D9F4D0931504C0931404CE01880F991F67
:1007C000C80FD91FC65EDB4F888190E090938900E7
:1007D0008093880089819A810E94F001EFE6F0E021
:1007E00080818260808334C08091160490911704C8
:1007F0000196C1F4D0931704C0931604CE01880F5C
:10080000991FC80FD91FC65EDB4F88818093B30044
:1008100089819A810E940502E0E7F0E08081826090
:10082000808316C0FE01EE0FFF1FEC0FFD1FE65E7A
:10083000FB4F808187BD818192810E940502EEE697
:10084000F0E0808182608083D0931304C09312040F
:10085000DF91CF9108955D98209112043091130497
:100860002817390749F510926E002FEF3FEF3093AC
:1008700013042093120420C010926F002FEF3FEF5B
:10088000309315042093140420911604309117041A
:1008900028173907C9F407C02091160430911704AE
:1008A0002817390789F4109270008FEF9FEF90930B
:1008B00017048093160408952091140430911504B0
:1008C0002817390749F7D8CF089580B190E0909361
:1008D00003048093020426B1822F90E090930104D8
:1008E0008093000423FF09C08091FC0383FD0DC0A9
:1008F00080E090E00E94B30308C08091FC0383FF76
:1009000004C080E090E00E942B048091000484FFEA
:1009100009C08091FC0384FD0DC081E090E00E943D
:10092000B30308C08091FC0384FF04C081E090E021
:100930000E942B048091000485FF09C08091FC0374
:1009400085FD0DC082E090E00E94B30308C0809155
:10095000FC0385FF04C082E090E00E942B0480919C
:10096000000486FF09C08091FC0386FD0DC083E072
:1009700090E00E94B30308C08091FC0386FF04C08E
:1009800083E090E00E942B048091000487FF09C05F
:100990008091FC0387FD0DC084E090E00E94B303CA
:1009A00008C08091FC0387FF04C084E090E00E94AF
:1009B0002B048091020487FF09C08091FE0387FD0C
:1009C0000DC085E090E00E94B30308C08091FE0353
:1009D00087FF04C085E090E00E942B048091020410
:1009E00086FF09C08091FE0386FD0DC086E090E081
:1009F0000E94B30308C08091FE0386FF04C086E016
:100A000090E00E942B048091020485FF09C0809130
:100A1000FE0385FD0DC087E090E00E94B30308C08F
:100A20008091FE0385FF04C087E090E00E942B04C4
:100A30008091000490910104887F9927892BB9F453
:100A40008091020490910304807E9927892B79F488
:100A50008FEF9FEF909313048093120490931504EB
:100A600080931404909317048093160407C089E3BD
:100A700091E090930101809300015D9A80910204BE
:100A8000909103049093FF038093FE0380910004F0
:100A9000909101049093FD038093FC0308958BB122
:100AA00087778BB94298809102019091030101965A
:100AB00029F0E0E6F0E080818F7B80838091FA036B
:100AC0009091FB03019719F40E94620301C05C9AA4
:100AD0000E943101282F30E030930B0420930A0448
:100AE0000E949F0380B190E09093190480931804B2
:100AF00020913204309133048217930711F00E9441
:100B000070030E94650408950E9495000E948A0067
:100B10000E949C00789484E993E09093310580933F
:100B20003005CFEFDFEFD0931304C0931204D093BE
:100B30001504C0931404D0931704C0931604D093E3
:100B40000D04C0930C04D0930F04C0930E04D093F3
:100B50001104C093100410921904109218041092FA
:100B60003304109232040E943101282F30E0309378
:100B70000B0420930A040E949F03D0930301C093A7
:100B800002011092FB031092FA030E944F05FDCF61
:100B90001092B90088E48093B800089594EA909385
:100BA000BC00ECEBF0E090819923ECF79091B90058
:100BB000987F983011F09031A1F48093BB0084E8C5
:100BC0008093BC00ECEBF0E080818823ECF79091FF
:100BD000B900987F983139F081E0903429F480E0B1
:100BE000089581E0089580E0089584E98093BC0031
:100BF000ECEBF0E0808184FDFDCF08958093BB0095
:100C000084E88093BC00ECEBF0E080818823ECF773
:100C10009091B900987F81E0983209F480E00895BE
:040C2000F894FFCF76
:100C24003901FFFF08000800080008000800080058
:100C3400080008005B005000480040003900330001
:100C440030002B00400040004000400040004000C5
:100C54004000400040004000400040004000400090
:100C64004000400040004000400040004000400080
:100C740040004000400040004000400008000800E0
:100C84000800080008000800080008000800080020
:100C94000800080008000800080008000800080010
:100CA4000800080008000800080008000800080000
:100CB40008000800080008000800080008000800F0
:100CC400080008000100010001000100010001000A
:100CD4000100010001000100010001000100010008
:100CE40001000100010001000100010099009000D1
:100CF400880080007900D3006C00660060005B000F
:100D0400550051004C004800440040003D003900AB
:100D14003600330030002D002B002800260024006C
:100D240022002000F300E500D800CC00C000B6008B
:100D3400AC00A20099009000880080007900720045
:100D44006C00660060005B00560051004C004800D7
:100D5400440040003C0039003600330030002D00D0
:100D64002B0028002600240022002000F300E500C8
:100D7400D800CC00C000B600AB00A10099009000E0
:100D840088008000790072006C00660060005B00DF
:100D940056005100000000000000000000000000A8
:100DA400000000000000000000000000000000003F
:100DB400000000000000000000000000000000002F
:100DC40000000000FF00FF00FF00FF00FF00FF0025
:100DD400FF00FF00FF00FF00FF00FF00FF00FF0017
:100DE400FF00FF00FF00FF00FF00FF00FF00FF0007
:100DF400FF00FF0005000B00100015001B00200081
:100E040025002B00300035003A00400045004A0020
:100E1400500055005A00600065006A0070007500BB
:100E24007A00800085008A008F0095009A009F0058
:100E3400A500AA00AF00B500BA00BF00C500CA00F3
:100E4400CF00D500DA00DF00E400EA00EF00F40090
:100E5400FA00FF000B00150020002B0035004000B5
:100E64004A00550060006A00750080008A00950001
:100E74009F00AA00B500BF00CA00D500DF00EA0049
:100E8400F400FF00F400EA00DF00D500CA00BF0050
:100E9400B500AA009F0095008A00800075006A00D2
:100EA400600055004A00400035002B00200015006A
:100EB4000B00000080009000A000B000BF00CD0037
:100EC400DA00E500EE00F500FB00FE00FF00FE0086
:100ED400FB00F500EE00E500DA00CD00BF00B00035
:100EE400A000900080006F005F004F0040003200BF
:100EF40025001A0011000A0004000100000001008E
:100F040004000A0011001A002500320040004F00BE
:040F14005F006F000B
:00000001FF
